{
  "contractName": "Provenance",
  "abi": [
    {
      "constant": true,
      "inputs": [
        {
          "internalType": "uint256",
          "name": "",
          "type": "uint256"
        }
      ],
      "name": "messageArray",
      "outputs": [
        {
          "internalType": "bytes32",
          "name": "",
          "type": "bytes32"
        }
      ],
      "payable": false,
      "stateMutability": "view",
      "type": "function"
    },
    {
      "constant": false,
      "inputs": [
        {
          "internalType": "string",
          "name": "message",
          "type": "string"
        }
      ],
      "name": "storeMessage",
      "outputs": [],
      "payable": false,
      "stateMutability": "nonpayable",
      "type": "function"
    },
    {
      "constant": true,
      "inputs": [
        {
          "internalType": "string",
          "name": "message",
          "type": "string"
        }
      ],
      "name": "newMessage",
      "outputs": [
        {
          "internalType": "bool",
          "name": "",
          "type": "bool"
        }
      ],
      "payable": false,
      "stateMutability": "view",
      "type": "function"
    }
  ],
  "bytecode": "0x608060405234801561001057600080fd5b50610421806100206000396000f3fe608060405234801561001057600080fd5b50600436106100415760003560e01c8063b6b9255e14610046578063d4e36ba714610119578063fc1775ac14610192575b600080fd5b6100ff6004803603602081101561005c57600080fd5b810190808035906020019064010000000081111561007957600080fd5b82018360208201111561008b57600080fd5b803590602001918460018302840111640100000000831117156100ad57600080fd5b91908080601f016020809104026020016040519081016040528093929190818152602001838380828437600081840152601f19601f8201169050808301925050505050505091929192905050506101d4565b604051808215151515815260200191505060405180910390f35b6101906004803603602081101561012f57600080fd5b810190808035906020019064010000000081111561014c57600080fd5b82018360208201111561015e57600080fd5b8035906020019184600183028401116401000000008311171561018057600080fd5b9091929391929390505050610238565b005b6101be600480360360208110156101a857600080fd5b81019080803590602001909291905050506102ba565b6040518082815260200191505060405180910390f35b6000806101e0836102db565b905060008090505b60008054905081101561022c57816000828154811061020357fe5b9060005260206000200154141561021f57600192505050610233565b80806001019150506101e8565b5060009150505b919050565b600061028783838080601f016020809104026020016040519081016040528093929190818152602001838380828437600081840152601f19601f820116905080830192505050505050506102db565b90506000819080600181540180825580915050906001820390600052602060002001600090919290919091505550505050565b600081815481106102c757fe5b906000526020600020016000915090505481565b60006002826040516020018082805190602001908083835b6020831061031657805182526020820191506020810190506020830392506102f3565b6001836020036101000a0380198251168184511680821785525050505050509050019150506040516020818303038152906040526040518082805190602001908083835b6020831061037d578051825260208201915060208101905060208303925061035a565b6001836020036101000a038019825116818451168082178552505050505050905001915050602060405180830381855afa1580156103bf573d6000803e3d6000fd5b5050506040513d60208110156103d457600080fd5b8101908080519060200190929190505050905091905056fea265627a7a72315820d3058d1b67bde60a3b79a17371a44a0b2dc9efa683937bf8d8c4b296132c67b564736f6c634300050c0032",
  "source": "pragma solidity ^0.5.0;\n\n//Contracts are equivalent to classes\ncontract Provenance {\n    //Private variable hash array of type bytes32\n    bytes32[] public messageArray;\n    //Pass in a message and hash\n    function hashMessage(string memory message)\n    private\n    pure\n    returns (bytes32)\n    {\n        return sha256(abi.encodePacked(message));\n    }\n    //Store hashed message\n    function storeMessage(string calldata message)\n    external\n    {\n        bytes32 hashedMessage = hashMessage(message);\n        messageArray.push(hashedMessage);\n    }\n    //Check a new message to see if contained in hashedMessage array\n    function newMessage(string memory message)\n    public\n    view\n    returns(bool)\n    {\n        bytes32 newHashedMessage = hashMessage(message);\n        for(uint256 i = 0; i < messageArray.length; i++){\n            if(messageArray[i] == newHashedMessage){\n                return true;\n            }\n        }\n        return false;\n    }\n}\n\n//Notes\n/*\nApparently iterations are expensive/ not good in solidity, so consider changing the array to a mapping\n*/",
  "sourcePath": "/Users/marcuswardlow/Development/provenance-tracking/contracts/provenance.sol",
  "compiler": {
    "name": "solc",
    "version": "0.5.12+commit.7709ece9.Emscripten.clang"
  },
  "schemaVersion": "3.0.19",
  "updatedAt": "2019-12-12T17:03:12.270Z",
  "networkType": "ethereum",
  "devdoc": {
    "methods": {}
  },
  "userdoc": {
    "methods": {}
  }
}